{
  "contractName": "CrossBorderPayment",
  "abi": [
    {
      "constant": true,
      "inputs": [
        {
          "name": "",
          "type": "address"
        },
        {
          "name": "",
          "type": "bytes32"
        }
      ],
      "name": "balances",
      "outputs": [
        {
          "name": "",
          "type": "uint128"
        }
      ],
      "payable": false,
      "stateMutability": "view",
      "type": "function"
    },
    {
      "constant": true,
      "inputs": [],
      "name": "usdToINR",
      "outputs": [
        {
          "name": "",
          "type": "uint256"
        }
      ],
      "payable": false,
      "stateMutability": "view",
      "type": "function"
    },
    {
      "constant": true,
      "inputs": [],
      "name": "owner",
      "outputs": [
        {
          "name": "",
          "type": "address"
        }
      ],
      "payable": false,
      "stateMutability": "view",
      "type": "function"
    },
    {
      "constant": true,
      "inputs": [
        {
          "name": "",
          "type": "uint256"
        }
      ],
      "name": "supportedCurrencies",
      "outputs": [
        {
          "name": "",
          "type": "bytes32"
        }
      ],
      "payable": false,
      "stateMutability": "view",
      "type": "function"
    },
    {
      "inputs": [],
      "payable": false,
      "stateMutability": "nonpayable",
      "type": "constructor"
    },
    {
      "payable": true,
      "stateMutability": "payable",
      "type": "fallback"
    },
    {
      "anonymous": false,
      "inputs": [
        {
          "indexed": true,
          "name": "user",
          "type": "address"
        },
        {
          "indexed": false,
          "name": "amount",
          "type": "uint256"
        },
        {
          "indexed": false,
          "name": "currency",
          "type": "bytes32"
        }
      ],
      "name": "Deposit",
      "type": "event"
    },
    {
      "anonymous": false,
      "inputs": [
        {
          "indexed": true,
          "name": "user",
          "type": "address"
        },
        {
          "indexed": false,
          "name": "amount",
          "type": "uint256"
        },
        {
          "indexed": false,
          "name": "currency",
          "type": "bytes32"
        }
      ],
      "name": "Withdrawal",
      "type": "event"
    },
    {
      "anonymous": false,
      "inputs": [
        {
          "indexed": true,
          "name": "sender",
          "type": "address"
        },
        {
          "indexed": true,
          "name": "receiver",
          "type": "address"
        },
        {
          "indexed": false,
          "name": "amount",
          "type": "uint256"
        },
        {
          "indexed": false,
          "name": "fromCurrency",
          "type": "bytes32"
        },
        {
          "indexed": false,
          "name": "toCurrency",
          "type": "bytes32"
        }
      ],
      "name": "CrossBorderPaymentSent",
      "type": "event"
    },
    {
      "anonymous": false,
      "inputs": [
        {
          "indexed": false,
          "name": "usdToINR",
          "type": "uint256"
        }
      ],
      "name": "ExchangeRatesUpdated",
      "type": "event"
    },
    {
      "anonymous": false,
      "inputs": [
        {
          "indexed": false,
          "name": "currency",
          "type": "bytes32"
        }
      ],
      "name": "CurrencyAdded",
      "type": "event"
    },
    {
      "constant": true,
      "inputs": [],
      "name": "getLatestETHUSDPrice",
      "outputs": [
        {
          "name": "",
          "type": "uint256"
        }
      ],
      "payable": false,
      "stateMutability": "view",
      "type": "function"
    },
    {
      "constant": false,
      "inputs": [
        {
          "name": "_usdToINR",
          "type": "uint256"
        }
      ],
      "name": "updateExchangeRateINR",
      "outputs": [],
      "payable": false,
      "stateMutability": "nonpayable",
      "type": "function"
    },
    {
      "constant": false,
      "inputs": [
        {
          "name": "currency",
          "type": "string"
        }
      ],
      "name": "addSupportedCurrency",
      "outputs": [],
      "payable": false,
      "stateMutability": "nonpayable",
      "type": "function"
    },
    {
      "constant": true,
      "inputs": [],
      "name": "getLatestETHINRPrice",
      "outputs": [
        {
          "name": "",
          "type": "uint256"
        }
      ],
      "payable": false,
      "stateMutability": "view",
      "type": "function"
    },
    {
      "constant": false,
      "inputs": [
        {
          "name": "currency",
          "type": "string"
        }
      ],
      "name": "deposit",
      "outputs": [],
      "payable": true,
      "stateMutability": "payable",
      "type": "function"
    },
    {
      "constant": false,
      "inputs": [
        {
          "name": "amount",
          "type": "uint256"
        },
        {
          "name": "currency",
          "type": "string"
        }
      ],
      "name": "withdraw",
      "outputs": [],
      "payable": false,
      "stateMutability": "nonpayable",
      "type": "function"
    }
  ],
  "bytecode": "0x608060405234801561001057600080fd5b50336000806101000a81548173ffffffffffffffffffffffffffffffffffffffff021916908373ffffffffffffffffffffffffffffffffffffffff16021790555073694aa1769357215de4fac081bf1f309adc325306600160006101000a81548173ffffffffffffffffffffffffffffffffffffffff021916908373ffffffffffffffffffffffffffffffffffffffff16021790555060046100f56040805190810160405280600381526020017f494e520000000000000000000000000000000000000000000000000000000000815250610123640100000000026401000000009004565b908060018154018082558091505090600182039060005260206000200160009091929091909150555061014f565b6000606082905060008151141561014157600060010291505061014a565b60208301519150505b919050565b6111c08061015e6000396000f3fe60806040526004361061009e576000357c0100000000000000000000000000000000000000000000000000000000900480630542e75c146100a05780631f14df691461016857806368d9a5d4146101fb5780636aa83fea146102265780638da5cb5b1461025157806397bf7935146102a8578063a26e1186146102f7578063bc1685ea146103b2578063d495e059146103ed578063dc048cf214610418575b005b3480156100ac57600080fd5b50610166600480360360208110156100c357600080fd5b81019080803590602001906401000000008111156100e057600080fd5b8201836020820111156100f257600080fd5b8035906020019184600183028401116401000000008311171561011457600080fd5b91908080601f016020809104026020016040519081016040528093929190818152602001838380828437600081840152601f19601f8201169050808301925050505050505091929192905050506104ea565b005b34801561017457600080fd5b506101c16004803603604081101561018b57600080fd5b81019080803573ffffffffffffffffffffffffffffffffffffffff1690602001909291908035906020019092919050505061064a565b60405180826fffffffffffffffffffffffffffffffff166fffffffffffffffffffffffffffffffff16815260200191505060405180910390f35b34801561020757600080fd5b50610210610688565b6040518082815260200191505060405180910390f35b34801561023257600080fd5b5061023b61068e565b6040518082815260200191505060405180910390f35b34801561025d57600080fd5b50610266610785565b604051808273ffffffffffffffffffffffffffffffffffffffff1673ffffffffffffffffffffffffffffffffffffffff16815260200191505060405180910390f35b3480156102b457600080fd5b506102e1600480360360208110156102cb57600080fd5b81019080803590602001909291905050506107aa565b6040518082815260200191505060405180910390f35b6103b06004803603602081101561030d57600080fd5b810190808035906020019064010000000081111561032a57600080fd5b82018360208201111561033c57600080fd5b8035906020019184600183028401116401000000008311171561035e57600080fd5b91908080601f016020809104026020016040519081016040528093929190818152602001838380828437600081840152601f19601f8201169050808301925050505050505091929192905050506107cd565b005b3480156103be57600080fd5b506103eb600480360360208110156103d557600080fd5b8101908080359060200190929190505050610a9a565b005b3480156103f957600080fd5b50610402610bc7565b6040518082815260200191505060405180910390f35b34801561042457600080fd5b506104e86004803603604081101561043b57600080fd5b81019080803590602001909291908035906020019064010000000081111561046257600080fd5b82018360208201111561047457600080fd5b8035906020019184600183028401116401000000008311171561049657600080fd5b91908080601f016020809104026020016040519081016040528093929190818152602001838380828437600081840152601f19601f820116905080830192505050505050509192919290505050610c8c565b005b6000809054906101000a900473ffffffffffffffffffffffffffffffffffffffff1673ffffffffffffffffffffffffffffffffffffffff163373ffffffffffffffffffffffffffffffffffffffff161415156105d4576040517f08c379a00000000000000000000000000000000000000000000000000000000081526004018080602001828103825260218152602001807f4f6e6c79206f776e65722063616e2063616c6c20746869732066756e6374696f81526020017f6e0000000000000000000000000000000000000000000000000000000000000081525060400191505060405180910390fd5b60046105df82610f0c565b90806001815401808255809150509060018203906000526020600020016000909192909190915055507f15e2bb2d9733845f72b6cc683c4d7bafd2d79cfd5c160cb1be756b6faa97dbdc61063282610f0c565b6040518082815260200191505060405180910390a150565b60036020528160005260406000206020528060005260406000206000915091509054906101000a90046fffffffffffffffffffffffffffffffff1681565b60025481565b600080600160009054906101000a900473ffffffffffffffffffffffffffffffffffffffff1673ffffffffffffffffffffffffffffffffffffffff1663feaf968c6040518163ffffffff167c010000000000000000000000000000000000000000000000000000000002815260040160a06040518083038186803b15801561071557600080fd5b505afa158015610729573d6000803e3d6000fd5b505050506040513d60a081101561073f57600080fd5b8101908080519060200190929190805190602001909291908051906020019092919080519060200190929190805190602001909291905050505050509150508091505090565b6000809054906101000a900473ffffffffffffffffffffffffffffffffffffffff1681565b6004818154811015156107b957fe5b906000526020600020016000915090505481565b60003411151561086b576040517f08c379a00000000000000000000000000000000000000000000000000000000081526004018080602001828103825260258152602001807f4465706f73697420616d6f756e74206d7573742062652067726561746572207481526020017f68616e203000000000000000000000000000000000000000000000000000000081525060400191505060405180910390fd5b61087481610f38565b15156108e8576040517f08c379a00000000000000000000000000000000000000000000000000000000081526004018080602001828103825260148152602001807f556e737570706f727465642063757272656e637900000000000000000000000081525060200191505060405180910390fd5b60006108f382610f9e565b905060008111151561096d576040517f08c379a00000000000000000000000000000000000000000000000000000000081526004018080602001828103825260158152602001807f496e76616c69642065786368616e67652072617465000000000000000000000081525060200191505060405180910390fd5b6000670de0b6b3a764000082340281151561098457fe5b04905080600360003373ffffffffffffffffffffffffffffffffffffffff1673ffffffffffffffffffffffffffffffffffffffff16815260200190815260200160002060006109d286610f0c565b815260200190815260200160002060008282829054906101000a90046fffffffffffffffffffffffffffffffff160192506101000a8154816fffffffffffffffffffffffffffffffff02191690836fffffffffffffffffffffffffffffffff1602179055503373ffffffffffffffffffffffffffffffffffffffff167f1a771fe656018364a9369da21954bb3081cb08b0196c27e43ca59c7cae87273782610a7986610f0c565b604051808381526020018281526020019250505060405180910390a2505050565b6000809054906101000a900473ffffffffffffffffffffffffffffffffffffffff1673ffffffffffffffffffffffffffffffffffffffff163373ffffffffffffffffffffffffffffffffffffffff16141515610b84576040517f08c379a00000000000000000000000000000000000000000000000000000000081526004018080602001828103825260218152602001807f4f6e6c79206f776e65722063616e2063616c6c20746869732066756e6374696f81526020017f6e0000000000000000000000000000000000000000000000000000000000000081525060400191505060405180910390fd5b806002819055507f9436216e99f50ef4edfd95dd301bd43f0cecf1f5867de6e90bd9eb1184a999936002546040518082815260200191505060405180910390a150565b600080610bd261068e565b9050600081111515610c72576040517f08c379a00000000000000000000000000000000000000000000000000000000081526004018080602001828103825260278152602001807f45544820746f20555344207072696365206d757374206265206772656174657281526020017f207468616e20300000000000000000000000000000000000000000000000000081525060400191505060405180910390fd5b6305f5e1006002548202811515610c8557fe5b0491505090565b81600360003373ffffffffffffffffffffffffffffffffffffffff1673ffffffffffffffffffffffffffffffffffffffff1681526020019081526020016000206000610cd784610f0c565b815260200190815260200160002060009054906101000a90046fffffffffffffffffffffffffffffffff166fffffffffffffffffffffffffffffffff1610151515610d8a576040517f08c379a00000000000000000000000000000000000000000000000000000000081526004018080602001828103825260148152602001807f496e73756666696369656e742062616c616e636500000000000000000000000081525060200191505060405180910390fd5b6000610d9582610f9e565b9050600081670de0b6b3a76400008502811515610dae57fe5b04905083600360003373ffffffffffffffffffffffffffffffffffffffff1673ffffffffffffffffffffffffffffffffffffffff1681526020019081526020016000206000610dfc86610f0c565b815260200190815260200160002060008282829054906101000a90046fffffffffffffffffffffffffffffffff160392506101000a8154816fffffffffffffffffffffffffffffffff02191690836fffffffffffffffffffffffffffffffff1602179055503373ffffffffffffffffffffffffffffffffffffffff166108fc829081150290604051600060405180830381858888f19350505050158015610ea7573d6000803e3d6000fd5b503373ffffffffffffffffffffffffffffffffffffffff167f806bc37112176c187cccea4249aea74827b609b5e40d595301442638bfd5736785610eea86610f0c565b604051808381526020018281526020019250505060405180910390a250505050565b60006060829050600081511415610f2a576000600102915050610f33565b60208301519150505b919050565b600080610f4483610f0c565b905060008090505b600480549050811015610f925781600482815481101515610f6957fe5b90600052602060002001541415610f8557600192505050610f99565b8080600101915050610f4c565b5060009150505b919050565b6000610fdf826040805190810160405280600381526020017f494e5200000000000000000000000000000000000000000000000000000000008152506110a1565b15611097576000610fee610bc7565b905060008111151561108e576040517f08c379a00000000000000000000000000000000000000000000000000000000081526004018080602001828103825260278152602001807f45544820746f20494e52207072696365206d757374206265206772656174657281526020017f207468616e20300000000000000000000000000000000000000000000000000081525060400191505060405180910390fd5b8091505061109c565b600090505b919050565b6000816040516020018082805190602001908083835b6020831015156110dc57805182526020820191506020810190506020830392506110b7565b6001836020036101000a03801982511681845116808217855250505050505090500191505060405160208183030381529060405280519060200120836040516020018082805190602001908083835b602083101515611150578051825260208201915060208101905060208303925061112b565b6001836020036101000a038019825116818451168082178552505050505050905001915050604051602081830303815290604052805190602001201490509291505056fea165627a7a7230582067284cb66153f0b7a2c3444c2a8b248da151502e2168690da72e239f0cf036650029",
  "source": "// SPDX-License-Identifier: MIT\r\npragma solidity ^0.5.1;\r\n\r\nimport \"./AggregatorV3Interface.sol\";\r\n\r\ncontract CrossBorderPayment {\r\n    address public owner;\r\n    AggregatorV3Interface internal priceFeedETHUSD;\r\n    uint256 public usdToINR;\r\n\r\n    mapping(address => mapping(bytes32 => uint128)) public balances;\r\n    bytes32[] public supportedCurrencies;\r\n\r\n    event Deposit(address indexed user, uint256 amount, bytes32 currency);\r\n    event Withdrawal(address indexed user, uint256 amount, bytes32 currency);\r\n    event CrossBorderPaymentSent(address indexed sender, address indexed receiver, uint256 amount, bytes32 fromCurrency, bytes32 toCurrency);\r\n    event ExchangeRatesUpdated(uint256 usdToINR);\r\n    event CurrencyAdded(bytes32 currency);\r\n\r\n    constructor() public {\r\n        owner = msg.sender;\r\n        priceFeedETHUSD = AggregatorV3Interface(0x694AA1769357215DE4FAC081bf1f309aDC325306);\r\n        supportedCurrencies.push(stringToBytes32(\"INR\"));\r\n    }\r\n\r\n    modifier onlyOwner() {\r\n        require(msg.sender == owner, \"Only owner can call this function\");\r\n        _;\r\n    }\r\n\r\n    function getLatestETHUSDPrice() public view returns (uint256) {\r\n        (, int256 price, , , ) = priceFeedETHUSD.latestRoundData();\r\n        return uint256(price);\r\n    }\r\n\r\n    function updateExchangeRateINR(uint256 _usdToINR) public onlyOwner {\r\n        usdToINR = _usdToINR;\r\n        emit ExchangeRatesUpdated(usdToINR);\r\n    }\r\n\r\n    function addSupportedCurrency(string memory currency) public onlyOwner {\r\n        supportedCurrencies.push(stringToBytes32(currency));\r\n        emit CurrencyAdded(stringToBytes32(currency));\r\n    }\r\n\r\n    function getLatestETHINRPrice() public view returns (uint256) {\r\n        uint256 ethUSD = getLatestETHUSDPrice();\r\n        require(ethUSD > 0, \"ETH to USD price must be greater than 0\");\r\n        return (ethUSD * usdToINR) / 1e8;\r\n    }\r\n\r\n    function isSupportedCurrency(string memory currency) internal view returns (bool) {\r\n        bytes32 currencyBytes = stringToBytes32(currency);\r\n        for (uint256 i = 0; i < supportedCurrencies.length; i++) {\r\n            if (supportedCurrencies[i] == currencyBytes) {\r\n                return true;\r\n            }\r\n        }\r\n        return false;\r\n    }\r\n\r\n    function deposit(string memory currency) public payable {\r\n        require(msg.value > 0, \"Deposit amount must be greater than 0\");\r\n        require(isSupportedCurrency(currency), \"Unsupported currency\");\r\n\r\n        uint256 exchangeRate = getExchangeRate(currency);\r\n        require(exchangeRate > 0, \"Invalid exchange rate\");\r\n\r\n        uint256 amountInCurrency = (msg.value * exchangeRate) / 1 ether;\r\n        balances[msg.sender][stringToBytes32(currency)] += uint128(amountInCurrency);\r\n        emit Deposit(msg.sender, amountInCurrency, stringToBytes32(currency));\r\n    }\r\n\r\n    function withdraw(uint256 amount, string memory currency) public {\r\n        require(balances[msg.sender][stringToBytes32(currency)] >= amount, \"Insufficient balance\");\r\n\r\n        uint256 exchangeRate = getExchangeRate(currency);\r\n        uint256 amountETH = (amount * 1 ether) / exchangeRate;\r\n\r\n        balances[msg.sender][stringToBytes32(currency)] -= uint128(amount);\r\n        msg.sender.transfer(amountETH);\r\n        emit Withdrawal(msg.sender, amount, stringToBytes32(currency));\r\n    }\r\n\r\n    function getExchangeRate(string memory currency) internal view returns (uint256) {\r\n        if (compareStrings(currency, \"INR\")) {\r\n            uint256 ethINR = getLatestETHINRPrice();\r\n            require(ethINR > 0, \"ETH to INR price must be greater than 0\");\r\n            return ethINR;\r\n        }\r\n        return 0;\r\n    }\r\n\r\n    function compareStrings(string memory a, string memory b) internal pure returns (bool) {\r\n        return keccak256(abi.encodePacked(a)) == keccak256(abi.encodePacked(b));\r\n    }\r\n\r\n    // Correct fallback function for Solidity 0.5.x\r\n    function() external payable {}\r\n\r\n    // Proper stringToBytes32 function\r\n    function stringToBytes32(string memory source) internal pure returns (bytes32 result) {\r\n        bytes memory tempEmptyStringTest = bytes(source);\r\n        if (tempEmptyStringTest.length == 0) {\r\n            return 0x0;\r\n        }\r\n        assembly {\r\n            result := mload(add(source, 32))\r\n        }\r\n    }\r\n}",
  "sourcePath": "E:\\hackthespace\\CrossBorderPayment\\contracts\\CrossBorderPayment.sol",
  "compiler": {
    "name": "solc",
    "version": "0.5.1+commit.c8a2cb62.Emscripten.clang"
  },
  "schemaVersion": "3.4.16",
  "updatedAt": "2024-10-17T10:23:38.506Z",
  "networkType": "ethereum",
  "devdoc": {
    "methods": {}
  },
  "userdoc": {
    "methods": {}
  }
}